:040000000C9400015B
:100004000C9400000C9400000C9400000C9400006C
:100014000C9400000C9400000C9400000C9400005C
:100024000C9400000C9400000C9400000C9400004C
:100034000C9400000C9400000C9400000C9400003C
:100044000C9400000C942F010C9400000C940000FC
:100054000C9400000C9400000C9400000C9400001C
:100064000C940000637C777BF26B6FC53001672BC7
:10007400FED7AB76CA82C97DFA5947F0ADD4A2AF98
:100084009CA472C0B7FD9326363FF7CC34A5E5F1A6
:1000940071D8311504C723C31896059A071280E254
:1000A400EB27B27509832C1A1B6E5AA0523BD6B3A8
:1000B40029E32F8453D100ED20FCB15B6ACBBE3918
:1000C4004A4C58CFD0EFAAFB434D338545F9027F04
:1000D400503C9FA851A3408F929D38F5BCB6DA21BD
:1000E40010FFF3D2CD0C13EC5F974417C4A77E3DE9
:1000F400645D197360814FDC222A908846EEB8143F
:10010400DE5E0BDBE0323A0A4906245CC2D3AC6201
:100114009195E479E7C8376D8DD54EA96C56F4EA0C
:10012400657AAE08BA78252E1CA6B4C6E8DD741F1D
:100134004BBD8B8A703EB5664803F60E613557B9E0
:1001440086C11D9EE1F8981169D98E949B1E87E99A
:10015400CE5528DF8CA1890DBFE6426841992D0F49
:10016400B054BB161027E80364000A000100001015
:10017400000110000100000000000D0A506C6169CC
:100184006E7420546578743A2000255820000D0AB6
:100194004B65793A20000D0A0957617474696E67DA
:1001A40020456E637279707420212121000D0A4369
:1001B400697068657220546578743A20000D0A09E4
:1001C400456E6420456E6372797074204145532DE9
:1001D400313238202121210D0A000D0A4E554C4C94
:1001E4000D0A000001020408102040801B360400A0
:1001F40003007A010A002B03E8010000F894EE27BB
:10020400EFBBF1E0F5BFE5BF8DE0A2E0BB27ED93C6
:100214008A95E9F780E094E0A0E0B1E0ED930197DE
:10022400E9F7E2EFF1E085919591009761F0A591EE
:10023400B59105901590BF01F00105900D920197BD
:10024400E1F7FB01F0CFE0E0EEBBEFEFEDBFE4E060
:10025400EEBFC0E0D3E00C946601EA93FA93EFB7E3
:10026400EA931A930A931091C0000091C600E12FFB
:10027400EC7181F4E42D4394F0E0E050FD4F0083F1
:10028400EBE2E41509F444246394EBE2E61511F47B
:100294006624F09A09911991E991EFBFF991E991D6
:1002A40018951A936620F1F3E32D3394F0E0E050AF
:1002B400FD4F1081EBE2E31509F43324F8946A94BA
:1002C4007894E12F19910895EF976D97E0E8E09302
:1002D4006100E0E0E0936100E4B9E5B9E7B9E8B9A9
:1002E400EAB9EBB9E093C000E8E9E093C100E6E0C5
:1002F400E093C200E0E0E093C500E3E3E093C400D0
:10030400789410E0103160F4E12F0E94A2060E945C
:10031400AC06DE01AE0FBF1FE0E0EC931F5FF2CF2F
:1003240010E000E06620F1F3A8EEB3E00E949D0720
:10033400E9E0E615F0F410E01C3230F40E94B50652
:10034400E0E3EC931F5FF8CF10E0E0E06E1680F07E
:10035400662071F0E12F1F5FF0E0DE01D096EA0F16
:10036400FB1FFF93EF939DDFAF91BF91EC93EDCF14
:1003740001E0662011F4013009F0E1C0A8A9A83316
:10038400A9F4A9A9A03391F4ACA9A03379F4ADA937
:10039400A03361F4AEA9A03349F4AFA9A03331F47A
:1003A400A8ADA13319F4A9ADA03309F0C6C0AAA918
:1003B400A03309F0C2C0EBA9F0E0E233A0E0FA07F1
:1003C40009F042C0EEE7F1E00E94BC061A3260F583
:1003D4000E94C50639F5E32F0E94A2060E94CF06AB
:1003E400AC91AA3328F40E94D506EC91E05304C0E2
:1003F4000E94D506EC91E755A0E1EA02F001DB0189
:10040400EC930E94B506AC91AA3328F40E94DF064F
:10041400EC91E05304C00E94DF06EC91E755E00D37
:10042400DB01EC931F5FD2CFA4E6B0E00E949D07EE
:1004340010E0103140F40E94E906DE0192960E9419
:10044400F0061F5FF6CF79C0E333A0E0FA0709F0A6
:1004540043C0E2E9F1E00E94BC061A3268F50E944A
:10046400C50641F5E32FF0E00E94AC060E94CF06DA
:10047400AC91AA3328F40E94FD06EC91E05304C029
:100484000E94FD06EC91E755A0E1EA02F001DB01D0
:10049400EC930E94B506AC91AA3328F40E94070796
:1004A400EC91E05304C00E940707EC91E755E00D7E
:1004B400DB01EC931F5FD1CFA4E6B0E00E949D075F
:1004C40010E0103140F40E94E906DE0152960E94C9
:1004D400F0061F5FF6CF31C0E433A0E0FA0729F538
:1004E400EAE9F1E00E941107FE01B096FA93EA935B
:1004F400FE017296FA93EA93DE011496B8D0A4EF43
:10050400B1E00E949D07E1EBF1E00E94110710E0C9
:10051400103140F40E94E906DE0112960E94F006B2
:100524001F5FF6CFE1ECF1E002C0EEEDF1E0FA93EB
:10053400EA9380E00E946406229600E010E0F2CE86
:10054400FFCFBA93AA931A930A9310E0103168F478
:10055400E12FAA81BB810E941807AC81BD810E9452
:100564001D07D001EC931F5FF1CF01E00B3008F0C1
:100574005EC010E0103108F058C0103010F0143094
:1005840008F02BC0133029F40E942207E7E0F0E0C2
:1005940004C00E942207E3E0F0E00E94E5070E9405
:1005A4003407EC91F0E0E859FF4FE491DB01EC9360
:1005B400103059F40E943B07AC91E02FF0E03197E2
:1005C400E55DFC4FE081EA2703C00E943B07EC9104
:1005D400E627A72FB82FEC9326C0E0E1E09FF001B7
:1005E4000E945307EA0FFB1F7E2F8F2FD001EE27A7
:1005F400A10FBE1FE4E0F0E00E94E5070E9434076B
:100604006C91E0E1E09FF001DF01EE27A10FBE1F36
:10061400E0E1F0E00E94E5070E943407EC91E62750
:10062400A72FB82FEC931F5FA5CF0F5F9FCF198122
:1006340008811BC0AA931A9310E01031A8F4E12F8B
:10064400AC81BD81F0E0EA0FFB1FBF010080E981AE
:10065400F0E070970E945307AE0FBF1FEC91E025A6
:10066400DB01EC931F5FE9CF188126960895BA93B6
:10067400AA93EF97EF97EF9723971A9310E010310F
:1006840088F40E945B07EA0FFB1FBF01DE01AB5336
:10069400BF4F0D90BC91A02D0E941D07DB01EC9370
:1006A4001F5FEDCFFE01ED53FF4F0190F081E02D70
:1006B400FA93EA93DE01539644DF0E946007BADF9F
:1006C40012E01B3068F40E946A07DE01119644D0E0
:1006D4000E9460071A02F001AE2FACDF1F5FF1CF5A
:1006E4000E946A070E9460071A02F001AE2FA2DF7F
:1006F40010E0103190F4E12FDE01AF53BF4F0D90A5
:10070400BC91A02D0E9418070E945B07AE0FBF1F6B
:10071400EC91D001EC931F5FECCF1881EF96EF962C
:10072400EF962A960895BA93AA931A9310E010317B
:1007340088F4E12FA981BA810E941807A981BA819E
:100744000E941D07F0E0E859FF4FE491D001EC93BB
:100754001F5FEDCF188180C1BA93AA93A0971A9313
:100764000A9310E0103150F5E12FF0E0DE015296CB
:100774000E947207D001EC93AAA1BBA1EE27A10F9E
:10078400BE1FAC91E7E00E94AF070E2FE12FF0E00F
:10079400DE0112960E947207EE0FD001EC93E12F56
:1007A400F0E0DE011296EA0FFB1F0F01A081E02F9B
:1007B400EB71EA27D001EC931F5FD4CFED89AA81B6
:1007C400EA27AC89EA27AB81EA27AB89EA27AAA101
:1007D400BBA1EC93EA89AB81EA27AD89EA27AC8116
:1007E400EA27AC89EA27AAA1BBA11196EC93EB896D
:1007F400AC81EA27AA89EA27AD81EA27AD89EA27ED
:10080400AAA1BBA11296EC93EC89AD81EA27AB892E
:10081400EA27AA81EA27AA89EA27AAA1BBA11396F3
:10082400EC93E98DAE81EA27A88DEA27AF81EA2708
:10083400AF89EA27AAA1BBA11496EC93EE89AF81F4
:10084400EA27A98DEA27A885EA27A88DEA27AAA17D
:10085400BBA11596EC93EF89A885EA27AE89EA2710
:10086400A985EA27A98DEA27AAA1BBA11696EC932C
:10087400E88DA985EA27AF89EA27AE81EA27AE8900
:10088400EA27AAA1BBA11796EC93ED8DAA85EA27C6
:10089400AC8DEA27AB85EA27AB8DEA27AAA1BBA1D9
:1008A4001896EC93EA8DAB85EA27AD8DEA27AC85E3
:1008B400EA27AC8DEA27AAA1BBA11996EC93EB8D8C
:1008C400AC85EA27AA8DEA27AD85EA27AD8DEA270C
:1008D400AAA1BBA11A96EC93EC8DAD85EA27AB8D4A
:1008E400EA27AA85EA27AA8DEA27AAA1BBA11B9613
:1008F400EC93E9A1AE85EA27A8A1EA27AF85EA2708
:10090400AF8DEA27AAA1BBA11C96EC93EE8DAF850F
:10091400EA27A9A1EA27A889EA27A8A1EA27AAA180
:10092400BBA11D96EC93EF8DA889EA27AE8DEA272B
:10093400A989EA27A9A1EA27AAA1BBA11E96EC933B
:10094400E8A1A989EA27AF8DEA27AE85EA27AE8D0B
:10095400EA27AAA1BBA11F96EC9319810881A4964A
:100964000895BA93AA9360971A9310E0103168F42B
:100974000E945B07EA0FFB1F0F01A989BA890E9435
:100984001D07D001EC931F5FF1CFE981A989BA89D2
:10099400EC93EE81A989BA891196EC93EB85A98928
:1009A400BA891296EC93E889A989BA891396EC93CB
:1009B400ED81A989BA891496EC93EA85A989BA8943
:1009C4001596EC93EF85A989BA891696EC93EC8178
:1009D400A989BA891796EC93E985A989BA891896E1
:1009E400EC93EE85A989BA891996EC93EB81A989D0
:1009F400BA891A96EC93E885A989BA891B96EC936F
:100A0400ED85A989BA891C96EC93EA81A989BA89EA
:100A14001D96EC93EF81A989BA891E96EC93EC8517
:100A2400A989BA891F96EC93188163960895AA93AD
:100A3400E091C000E072E1F3E881E093C600219602
:100A44000895BA93AA93AA81F2DFA881B981ED919E
:100A5400FD913196FE93EE9323960895BA93AA934B
:100A640026970E94EC0710E0AC85BD85E0E0F0E03D
:100A7400ED93FC93EA89FB893196EA8BFB8B3197E2
:100A8400E4912E2FE03009F415C1E12FE03039F460
:100A9400253211F411E002C00E9478070AC1E13046
:100AA400A9F4253219F40E94780702C112E040E04B
:100AB40000E02D3211F401E0FCC02B3211F44BE2C2
:100AC400F8C0203211F440E2F4C002C0E23039F43C
:100AD40050E013E0203311F40068EBC003C0E330AE
:100AE40009F0E7C0203310F02A3308F007C0AAE069
:100AF4005A9F502DE22FE0535E0FDBC0E22FE33606
:100B040049F40E947F07E889F989A481AA930E9485
:100B14008507CEC0E33741F40E947F070E948B070C
:100B24000E9489061E2F0AC0E03761F40E947F07E5
:100B34000E948B070E9495061E2F086002600F77A3
:100B440030E034C0E43611F0E93611F4046002C038
:100B5400E53731F4E8E6F1E0EE83FF8315E00CC0FD
:100B6400E83511F4086003C0E83709F0A1C0E2E7F2
:100B7400F1E0EE83FF8314E002FF14C00E947F07BC
:100B84000E949507AB85AA233AF4EA85FB850E9467
:100B9400AB07EA87FB874DE2403011F01F5F01C0CD
:100BA4000B7F04C00E947F070E94950700FD11C0BF
:100BB400151778F407FF08C002FF04C00B7F242F29
:100BC400115001C020E301C020E20E947807515077
:100BD400EFCF312F01FF17C03030A1F003FF06C063
:100BE400EE81FF812591EE83FF8305C0AE81BF8135
:100BF4002D91AE83BF830E947807503009F0515085
:100C04003150EACF4BC020E3EE81FF810E94DC0724
:100C1400E887F987EE81FF813296EE83FF83E885CA
:100C2400F985AA85BB85AE17BF0750F02F5FA8854D
:100C3400B985EA85FB85EA1BFB0BEA87FB87EFCFC7
:100C44002A3328F003FF02C0295F01C0295D04FD97
:100C54001AC0213320F4A885B985119709F409C075
:100C6400531710F000FF01C013C020E207FF0BC0B0
:100C740020E3006102FF07C00B7F4A930E948507AF
:100C8400503009F051500E947807503009F051500B
:100C94003150A885B985129708F0B5CF00FF08C078
:100CA400503031F05150E0E2EA930E948507F8CFCA
:100CB40010E0E0CEAC85BD850E94D8070E94F30702
:100CC40064960895FF92F82E26971A930A93DE01EC
:100CD40014960E94A7078D01E0E0EC83ED83EE8378
:100CE400EF83DE0118960E94A7070E94D807FA93A3
:100CF400EA931A930A93E3E2F5E0FA93EA93DE01A6
:100D04001896ACDE198108812896FF900895BA934D
:100D1400AA93A991B991EE27FF276D91662311F04B
:100D24003196FBCF0895BA93AA93AA27BB27E991DA
:100D3400F9910590002011F01196FBCFFD01089563
:100D4400F0E0DE019096AE0FBF1FE0E0EC93E12FE0
:100D5400F0E00895DE015096AE0FBF1FE0E0EC9383
:100D6400E12FF0E00895E12FF0E0DE01D096AE0F20
:100D7400BF1F0895FA93EA9380E00E9464062296C6
:100D840030E01AE00895E12FF0E03196DF01E2E06F
:100D9400F0E00E94CA07309708953197DE01D0969B
:100DA400AE0FBF1F0895E32FF0E0DE019096EA0F27
:100DB400FB1FBF01E12FF0E0F0CFE32F3F5FF0E036
:100DC400DE019096EA0FFB1FBF010080CCCFEEE856
:100DD400F1E0FA93EA93E12FF0E00895AE0FBF1F1C
:100DE400EC91FF27662777270E94E00784E00E94A2
:100DF400640626960895E32FF0E0DE015096EA0F8C
:100E0400FB1FBF01E12FF0E0C8CFE32F3F5FF0E00D
:100E1400DE015096EA0FFB1FBF010080A4CFFA93B6
:100E2400EA9380E00E94640622960895F0E0EA0FB7
:100E3400FB1F0F010895EE27A10FBE1FEC9108952B
:100E4400E0E1E09FF001DF01E12FF0E0EA0FFB1F9A
:100E5400AA81BB81EA0FFB1FBF01D001EE27A10FBE
:100E6400BE1F0895EA1BFB0BAA81BB81AE0FBF1FF7
:100E74000895E0E1E09FF001DF01E12FF0E0EA0FE7
:100E8400FB1FAA81BB81EA0FFB1F7E2F8F2F60817E
:100E9400D001EE27A10FBE1FE0E1F0E00E94E507BC
:100EA400E1CFDF01E12FF0E0EA0FFB1FAA81BB8154
:100EB4000895E12FF0E0DE0111960895FE013196C8
:100EC400FA93EA93FE017396FA93EA93A0E10895E4
:100ED400DE0111960E949503DE0111960C94B30471
:100EE400EA0FFB1F0F01AAA1BBA1A5CF2A93AD85D1
:100EF400BE85EF85F88909950895E889F9893497BD
:100F0400E88BF98B0895AD85BE85EF85F889099541
:100F14000895A889B98914960E94D807EE83FF839F
:100F2400AE81BF810895A889B98914960E94D80713
:100F3400EA87FB870895109639F080ED97E00197D2
:100F4400F1F7A8951197C9F708950024AF0DB01DC6
:100F54000895F195E195F0400895EE230E2EEA2FC1
:100F640019F0E5950A94E9F708950024112490E115
:100F7400AA0FBB1F001C111C0E1A1F0A18F40E0E18
:100F84001F1E01C0A1609A9599F7FD01D001089533
:100F9400E894B7FF04C0A095B09511966894F7FD46
:100FA400D8DFE3DFFD010EF4D4DF0895ED91FC9169
:100FB400119708950590F491E02D08957A936A931A
:100FC400FA93EA9308951B2EBF2FF12D1A2EAE2FFC
:100FD400E12D08955A934A933A932A931A930A93C4
:100FE40008955D814C813B812A811981088108958E
:00000001FF
