:020000000C945E
:1000020093010C9400000C9400000C9400000C94DA
:1000120000000C9400000C9400000C9400000C945E
:1000220000000C9400000C9400000C9400000C944E
:1000320000000C9400000C9400000C9400000C943E
:1000420000000C9400000C94C2010C9400000C946B
:1000520000000C9400000C9400000C9400000C941E
:1000620000000C940000637C777BF26B6FC530015B
:10007200672BFED7AB76CA82C97DFA5947F0ADD459
:10008200A2AF9CA472C0B7FD9326363FF7CC34A52D
:10009200E5F171D8311504C723C31896059A0712E2
:1000A20080E2EB27B27509832C1A1B6E5AA0523BD1
:1000B200D6B329E32F8453D100ED20FCB15B6ACB88
:1000C200BE394A4C58CFD0EFAAFB434D338545F990
:1000D200027F503C9FA851A3408F929D38F5BCB639
:1000E200DA2110FFF3D2CD0C13EC5F974417C4A7AB
:1000F2007E3D645D197360814FDC222A908846EE52
:10010200B814DE5E0BDBE0323A0A4906245CC2D345
:10011200AC629195E479E7C8376D8DD54EA96C56DE
:10012200F4EA657AAE08BA78252E1CA6B4C6E8DDD4
:10013200741F4BBD8B8A703EB5664803F60E61355F
:1001420057B986C11D9EE1F8981169D98E949B1EFC
:1001520087E9CE5528DF8CA1890DBFE64268419917
:100162002D0FB054BB1652096AD53036A538BF40A0
:10017200A39E81F3D7FB7CE339829B2FFF87348ECA
:100182004344C4DEE9CB547B9432A6C2233DEE4CF9
:10019200950B42FAC34E082EA16628D924B2765B8B
:1001A200A2496D8BD12572F8F66486689816D4A49C
:1001B2005CCC5D65B6926C704850FDEDB9DA5E15A7
:1001C2004657A78D9D8490D8AB008CBCD30AF7E428
:1001D2005805B8B34506D02C1E8FCA3F0F02C1AFD7
:1001E200BD0301138A6B3A9111414F67DCEA97F222
:1001F200CFCEF0B4E67396AC7422E7AD3585E2F962
:1002020037E81C75DF6E47F11A711D29C5896FB772
:10021200620EAA18BE1BFC563E4BC6D279209ADB50
:10022200C0FE78CD5AF41FDDA8338807C731B1125A
:1002320010592780EC5F60517FA919B54A0D2DE551
:100242007A9F93C99CEFA0E03B4DAE2AF5B0C8EB74
:10025200BB3C83539961172B047EBA77D626E1699A
:10026200146355210C7D1027E80364000A00010085
:100272000010000110000100000000000D0A506C87
:1002820061696E7420546578743A200D0A0025580D
:1002920020000D0A4B65793A200D0A000D0A5761BC
:1002A2007474696E6720456E6372797074202121BF
:1002B20021000D0A506C61696E7420546578743A9D
:1002C20020000D0A4B65793A20000D0A456E642024
:1002D200456E6372797074204145532D3132382056
:1002E200212121000D0A43697068657220546578E6
:1002F200743A20000D0A44656372797074202121DA
:1003020021000D0A4E554C4C0D0A00000102040852
:10031200102040801B36040003007A020A002B03DF
:100322000E030000F894EE27EFBBF1E0F5BFE5BF46
:100332008DE0A2E0BB27ED938A95E9F780E094E097
:10034200A0E0B1E0ED930197E9F7E8E1F3E08591F0
:100352009591009761F0A591B59105901590BF0117
:10036200F00105900D920197E1F7FB01F0CFE0E07B
:10037200EEBBEFEFEDBFE4E0EEBFC0E0D3E00C94E4
:10038200F901EA93FA93EFB7EA931A930A93109159
:10039200C0000091C600E12FEC7181F4E42D43947A
:1003A200F0E0E050FD4F0083EBE2E41509F4442451
:1003B2006394EBE2E61511F46624F09A099119911F
:1003C200E991EFBFF991E99118951A936620F1F33B
:1003D200E32D3394F0E0E050FD4F1081EBE2E315A2
:1003E20009F43324F8946A947894E12F19910895CA
:1003F200EF976D97E0E8E0936100E0E0E093610041
:10040200E4B9E5B9E7B9E8B9EAB9EBB9E093C000F4
:10041200E8E9E093C100E6E0E093C200E0E0E093A7
:10042200C500E3E3E093C400789410E0103160F477
:10043200E12F0E945D090E946709DE01AE0FBF1F16
:10044200E0E0EC931F5FF2CF10E000E06620F1F3F2
:10045200A8EEB3E00E943C0BE9E0E615F0F410E0F0
:100462001C3230F40E947009E0E3EC931F5FF8CF76
:1004720010E0E0E06E1680F0662071F0E12F1F5F61
:10048200F0E0DE01D096EA0FFB1FFF93EF939DDFB2
:10049200AF91BF91EC93EDCF01E0662011F40130F2
:1004A20009F000C1A8A9A833A9F4A9A9A03391F41D
:1004B200ACA9A03379F4ADA9A03361F4AEA9A033FD
:1004C20049F4AFA9A03331F4A8ADA13319F4A9AD11
:1004D200A03309F0E5C0AAA9A03309F0E1C0EBA955
:1004E200F0E0E233A0E0FA0709F040C0EEE7F2E004
:1004F2000E9477091A3260F50E94800939F5E32FCC
:100502000E945D090E948A09AC91AA3328F40E94D4
:100512009009EC91E05304C00E949009EC91E755D8
:10052200A0E1EA02F001DB01EC930E947009AC91B8
:10053200AA3328F40E949A09EC91E05304C00E9465
:100542009A09EC91E755E00DDB01EC931F5FD2CFE6
:10055200A4E6B0E00E943C0B10E0103130F40E949F
:10056200A4090E94AB091F5FF8CF9AC0E333A0E051
:10057200FA0709F041C0E4E9F2E00E9477091A3271
:1005820068F50E94800941F5E32FF0E00E946709B7
:100592000E948A09AC91AA3328F40E94BA09EC910C
:1005A200E05304C00E94BA09EC91E755A0E1EA02C7
:1005B200F001DB01EC930E947009AC91AA3328F49C
:1005C2000E94C409EC91E05304C00E94C409EC915A
:1005D200E755E00DDB01EC931F5FD1CFA4E6B0E05D
:1005E2000E943C0B10E0103130F40E94A4090E94DA
:1005F200CE091F5FF8CF54C0E433A0E0FA0709F038
:100602004BC0EEE9F2E00E94DD09E4EBF2E00E9469
:10061200DD0910E0103130F40E94A4090E94AB09F8
:100622001F5FF8CFE4ECF2E00E94DD0910E0103128
:1006320030F40E94A4090E94CE091F5FF8CF0E94E5
:10064200E409EAD0ECECF2E00E94DD09A4EFB1E0AB
:100652000E943C0BE6EEF2E00E94DD0910E0103150
:1006620030F40E94A4090E94EF091F5FF8CF0E9494
:10067200E40970D2E6EFF2E00E94DD09E4EBF2E079
:100682000E94DD0910E0103130F40E94A4090E949A
:10069200EF091F5FF8CF04C0E4E0F3E00E94DD0938
:1006A20000E010E0D3CEFFCFAA931A9310E0EA81C4
:1006B200E03019F0E981E03009F414C0E981E17019
:1006C20011F0EA811E27EA81E07829F0EA81EE0F33
:1006D200ABE1EA2702C0EA81EE0FEA83E981E695FF
:1006E200E983E5CFE12F18810C94E907BA93AA9325
:1006F2001A930A9310E0103168F4E12FAA81BB81AA
:100702000E94FE09AC81BD810E94030AD001EC93D4
:100712001F5FF1CF01E00B3008F05EC010E0103136
:1007220008F058C0103010F0143008F02BC013300D
:1007320029F40E94080AE7E0F0E004C00E94080AD7
:10074200E3E0F0E00E94840B0E941A0AEC91F0E0D0
:10075200E859FF4FE491DB01EC93103059F40E9409
:10076200210AAC91E02FF0E03197E55DFC4FE0818A
:10077200EA2703C00E94210AEC91E627A72FB82F8F
:10078200EC9326C0E0E1E09FF0010E94390AEA0FF3
:10079200FB1F7E2F8F2FD001EE27A10FBE1FE4E09B
:1007A200F0E00E94840B0E941A0A6C91E0E1E09F43
:1007B200F001DF01EE27A10FBE1FE0E1F0E00E9491
:1007C200840B0E941A0AEC91E627A72FB82FEC930C
:1007D2001F5FA5CF0F5F9FCF198108811BC0AA930E
:1007E2001A9310E01031A8F4E12FAC81BD81F0E042
:1007F200EA0FFB1FBF010080E981F0E070970E94C1
:10080200390AAE0FBF1FEC91E025DB01EC931F5FAD
:10081200E9CF188126960895BA93AA93EF97EF9796
:10082200EF9723971A9310E0103188F40E94410A3F
:10083200EA0FFB1FBF01DE01AB53BF4F0D90BC910E
:10084200A02D0E94030ADB01EC931F5FEDCFFE0196
:10085200ED53FF4F0190F081E02DFA93EA93DE0110
:10086200539644DF0E94460ABADF12E01B3058F466
:100872000E94500ADE01119641D00E94460A0E944F
:10088200580A1F5FF3CF0E94500A0E94460A0E9434
:10089200580A10E0103190F4E12FDE01AF53BF4F40
:1008A2000D90BC91A02D0E94FE090E94410AAE0F3C
:1008B200BF1FEC91D001EC931F5FECCF1881EF9634
:1008C200EF96EF962A960895BA93AA931A9310E098
:1008D200103188F4E12FA981BA810E94FE09A98111
:1008E200BA810E94030AF0E0E859FF4FE491D00177
:1008F200EC931F5FEDCF18810C94E907BA93AA938A
:10090200A0971A930A9310E0103150F5E12FF0E00E
:10091200DE0152960E945D0AD001EC93AAA1BBA10E
:10092200EE27A10FBE1FAC91E7E00E944E0B0E2FE7
:10093200E12FF0E0DE0112960E945D0AEE0FD00177
:10094200EC93E12FF0E0DE011296EA0FFB1F0F019C
:10095200A081E02FEB71EA27D001EC931F5FD4CF87
:10096200ED89AA81EA27AC89EA27AB81EA27AB891C
:10097200EA27AAA1BBA1EC93EA89AB81EA27AD8958
:10098200EA27AC81EA27AC89EA27AAA1BBA1119682
:10099200EC93EB89AC81EA27AA89EA27AD81EA27A1
:1009A200AD89EA27AAA1BBA11296EC93EC89AD818D
:1009B200EA27AB89EA27AA81EA27AA89EA27AAA114
:1009C200BBA11396EC93E98DAE81EA27A88DEA27A5
:1009D200AF81EA27AF89EA27AAA1BBA11496EC93BB
:1009E200EE89AF81EA27A98DEA27A885EA27A88D93
:1009F200EA27AAA1BBA11596EC93EF89A885EA275D
:100A0200AE89EA27A985EA27A98DEA27AAA1BBA16F
:100A12001696EC93E88DA985EA27AF89EA27AE817D
:100A2200EA27AE89EA27AAA1BBA11796EC93ED8D1E
:100A3200AA85EA27AC8DEA27AB85EA27AB8DEA27A0
:100A4200AAA1BBA11896EC93EA8DAB85EA27AD8DDE
:100A5200EA27AC85EA27AC8DEA27AAA1BBA11996A1
:100A6200EC93EB8DAC85EA27AA8DEA27AD85EA27C0
:100A7200AD8DEA27AAA1BBA11A96EC93EC8DAD85A8
:100A8200EA27AB8DEA27AA85EA27AA8DEA27AAA137
:100A9200BBA11B96EC93E9A1AE85EA27A8A1EA27A0
:100AA200AF85EA27AF8DEA27AAA1BBA11C96EC93DA
:100AB200EE8DAF85EA27A9A1EA27A889EA27A8A18E
:100AC200EA27AAA1BBA11D96EC93EF8DA889EA277C
:100AD200AE8DEA27A989EA27A9A1EA27AAA1BBA183
:100AE2001E96EC93E8A1A989EA27AF8DEA27AE8585
:100AF200EA27AE8DEA27AAA1BBA11F96EC93198122
:100B02000881A49608950E94630A103140F40E945D
:100B1200410A0E94690AD001EC931F5FF6CFE98176
:100B2200A989BA89EC93EE810E946F0AE8890E9432
:100B3200790AEA850E94830AEC810E948D0AEE8579
:100B42000E94970AE8850E94A10AEA810E94AB0AE4
:100B5200EC8522C2BA93AA93EF97EF97E2971A9382
:100B6200FE01ED54FF4F0190F081E02DFA93EA93DC
:100B7200DE011396BBDD0E94B50AA0EB30DE0E94B7
:100B8200C20A0E94C90A1AE0123070F00E94B50A25
:100B9200A0E10E94580A0E94C20A67D00E94C20ABB
:100BA2000E94C90A1150F0CF0E94CE0A0E94CE0ABA
:100BB200A0E115DE10E0103198F4E12FDE01AF5410
:100BC200BF4F0D90BC91A02DF0E0EA0FFB1FBF01BB
:100BD2000E94C20A0E94030ADB01EC931F5FEBCF63
:100BE2001881EF96EF96E99608950E94630A1031F4
:100BF20040F40E94410A0E94690AD001EC931F5FEF
:100C0200F6CFE981A989BA89EC93EE850E946F0A31
:100C1200E8850E94790AEA810E94830AEC850E9493
:100C22008D0AEE810E94970AE8890E94A10AEA854C
:100C32000E94AB0AEC81B0C1BA93AA931A9310E056
:100C4200103188F4E12FA981BA810E94FE09A9819D
:100C5200BA810E94030AF0E0E859FE4FE491D00104
:100C6200EC931F5FEDCF1881B3C10E94630A10316C
:100C720040F40E94410A0E94690AD001EC931F5F6E
:100C8200F6CFE9E00E94D70AEF93EBE00E94DB0A7D
:100C9200AF91EA27EF93EDE00E94DF0AAF91EA27D6
:100CA200EF93EEE00E94E30AAF91EA27A989BA899D
:100CB200EC93E9E00E94E30AEF93EBE00E94DF0A83
:100CC200AF91EA27EF93EDE00E94D70AAF91EA27AE
:100CD200EF93EEE00E94DB0AAF91EA27A989BA8975
:100CE2001196EC93E9E00E94DB0AEF93EBE00E949D
:100CF200D70AAF91EA27EF93EDE00E94E30AAF91A2
:100D0200EA27EF93EEE00E94DF0AAF91EA27A98972
:100D1200BA891296EC93E9E00E94DF0AEF93EBE0C6
:100D22000E94E30AAF91EA27EF93EDE00E94DB0A0B
:100D3200AF91EA27EF93EEE00E94D70AAF91EA273C
:100D4200A989BA891396EC93E9E00E94E70AEF9326
:100D5200EBE00E94EB0AAF91EA27EF93EDE00E94ED
:100D6200EF0AAF91EA27EF93EEE00E94F30AAF9108
:100D7200EA27A989BA891496EC93E9E00E94F30A5A
:100D8200EF93EBE00E94EF0AAF91EA27EF93EDE0D9
:100D92000E94E70AAF91EA27EF93EEE00E94EB0A86
:100DA200AF91EA27A989BA891596EC93E9E00E94E6
:100DB200EB0AEF93EBE00E94E70AAF91EA27EF9389
:100DC200EDE00E94F30AAF91EA27EF93EEE00E9472
:100DD200EF0AAF91EA27A989BA891696EC93E9E05E
:100DE2000E94EF0AEF93EBE00E94F30AAF91EA2729
:100DF200EF93EDE00E94EB0AAF91EA27EF93EEE06A
:100E02000E94E70AAF91EA27A989BA891796EC935B
:100E1200E9E00E94F70AEF93EBE00E94FB0AAF9130
:100E2200EA27EF93EDE00E94FF0AAF91EA27EF93E2
:100E3200EEE00E94030BAF91EA27A989BA891896BE
:100E4200EC93E9E00E94030BEF93EBE00E94FF0AB0
:100E5200AF91EA27EF93EDE00E94F70AAF91EA27FC
:100E6200EF93EEE00E94FB0AAF91EA27A989BA89C3
:100E72001996EC93E9E00E94FB0AEF93EBE00E94E3
:100E8200F70AAF91EA27EF93EDE00E94030BAF91CF
:100E9200EA27EF93EEE00E94FF0AAF91EA27A989C1
:100EA200BA891A96EC93E9E00E94FF0AEF93EBE00D
:100EB2000E94030BAF91EA27EF93EDE00E94FB0A39
:100EC200AF91EA27EF93EEE00E94F70AAF91EA278B
:100ED200A989BA891B96EC93E9E00E94070BEF936C
:100EE200EBE00E940B0BAF91EA27EF93EDE00E943B
:100EF2000F0BAF91EA27EF93EEE00E94130BAF9135
:100F0200EA27A989BA891C96EC93E9E00E94130B9F
:100F1200EF93EBE00E940F0BAF91EA27EF93EDE026
:100F22000E94070BAF91EA27EF93EEE00E940B0BB2
:100F3200AF91EA27A989BA891D96EC93E9E00E944C
:100F42000B0BEF93EBE00E94070BAF91EA27EF93B5
:100F5200EDE00E94130BAF91EA27EF93EEE00E94BF
:100F62000F0BAF91EA27A989BA891E96EC93E9E0A3
:100F72000E940F0BEF93EBE00E94130BAF91EA2755
:100F8200EF93EDE00E940B0BAF91EA27EF93EEE0B7
:100F92000E94070BAF91EA27A989BA891F96EC93A1
:100FA200188163960895AA93E091C000E072E1F37C
:100FB200E881E093C60021960895BA93AA93AA8184
:100FC200F2DFA881B981ED91FD913196FE93EE9306
:100FD20023960895BA93AA9326970E948B0B10E04A
:100FE200AC85BD85E0E0F0E0ED93FC93EA89FB89F6
:100FF2003196EA8BFB8B3197E4912E2FE03009F486
:1010020015C1E12FE03039F4253211F411E002C0AC
:101012000E94170B0AC1E130A9F4253219F40E948B
:10102200170B02C112E040E000E02D3211F401E0A2
:10103200FCC02B3211F44BE2F8C0203211F440E232
:10104200F4C002C0E23039F450E013E0203311F46E
:101052000068EBC003C0E33009F0E7C0203310F0B2
:101062002A3308F007C0AAE05A9F502DE22FE0531E
:101072005E0FDBC0E22FE33649F40E941E0BE889C3
:10108200F989A481AA930E94240BCEC0E33741F4CC
:101092000E941E0B0E942A0B0E9444091E2F0AC0A6
:1010A200E03761F40E941E0B0E942A0B0E94500935
:1010B2001E2F086002600F7730E034C0E43611F072
:1010C200E93611F4046002C0E53731F4E8E6F2E0F3
:1010D200EE83FF8315E00CC0E83511F4086003C00D
:1010E200E83709F0A1C0E2E7F2E0EE83FF8314E003
:1010F20002FF14C00E941E0B0E94340BAB85AA2370
:101102003AF4EA85FB850E944A0BEA87FB874DE2A7
:10111200403011F01F5F01C00B7F04C00E941E0B04
:101122000E94340B00FD11C0151778F407FF08C0A8
:1011320002FF04C00B7F242F115001C020E301C025
:1011420020E20E94170B5150EFCF312F01FF17C041
:101152003030A1F003FF06C0EE81FF812591EE83BE
:10116200FF8305C0AE81BF812D91AE83BF830E94F4
:10117200170B503009F051503150EACF4BC020E3E9
:10118200EE81FF810E947B0BE887F987EE81FF8168
:101192003296EE83FF83E885F985AA85BB85AE1773
:1011A200BF0750F02F5FA885B985EA85FB85EA1B4A
:1011B200FB0BEA87FB87EFCF2A3328F003FF02C03D
:1011C200295F01C0295D04FD1AC0213320F4A885DE
:1011D200B985119709F409C0531710F000FF01C037
:1011E20013C020E207FF0BC020E3006102FF07C02B
:1011F2000B7F4A930E94240B503009F051500E94F9
:10120200170B503009F051503150A885B98512970B
:1012120008F0B5CF00FF08C0503031F05150E0E285
:10122200EA930E94240BF8CF10E0E0CEAC85BD8596
:101232000E94770B0E94920B64960895FF92F82EFB
:1012420026971A930A93DE0114960E94460B8D018B
:10125200E0E0EC83ED83EE83EF83DE0118960E94DB
:10126200460B0E94770BFA93EA931A930A93EEEDD8
:10127200F7E0FA93EA93DE011896ACDE1981088151
:101282002896FF900895BA93AA93A991B991EE274F
:10129200FF276D91662311F03196FBCF0895BA9323
:1012A200AA93AA27BB27E991F9910590002011F092
:1012B2001196FBCFFD010895F0E0DE019096AE0F8E
:1012C200BF1FE0E0EC93E12FF0E00895DE015096BD
:1012D200AE0FBF1FE0E0EC93E12FF0E00895E12FA5
:1012E200F0E0DE01D096AE0FBF1F0895FA93EA93A5
:1012F20080E00E941F09229630E01AE00895E12F53
:10130200F0E03196DF01E2E0F0E00E94690B3097F5
:1013120008953197DE01D096AE0FBF1F0895E32FD7
:10132200F0E0DE019096EA0FFB1FBF01E12FF0E033
:10133200F0CFE32F3F5FF0E0DE019096EA0FFB1F54
:10134200BF010080CCCFE0E9F2E0FA93EA93E12F0B
:10135200F0E00895DE019296AE0FBF1FEC91FF27D9
:10136200662777270E947F0B84E00E941F0926963A
:101372000895E32FF0E0DE015096EA0FFB1FBF0154
:10138200E12FF0E0C6CFE32F3F5FF0E0DE015096A1
:10139200EA0FFB1FBF010080A2CFDE015296AE0F03
:1013A200BF1FEC91FF27662777270E947F0B84E0FF
:1013B2000E941F0926960895FA93EA9380E00E94FC
:1013C2001F0922960895FE01B096FA93EA93FE0150
:1013D2007296FA93EA93DE0114960895DE0112964C
:1013E200AE0FBF1FEC91FF27662777270E947F0B66
:1013F20084E00E941F0926960895F0E0EA0FFB1F81
:101402000F010895EE27A10FBE1FEC910895E0E1B0
:10141200E09FF001DF01E12FF0E0EA0FFB1FAA815C
:10142200BB81EA0FFB1FBF01D001EE27A10FBE1F38
:101432000895EA1BFB0BAA81BB81AE0FBF1F089563
:10144200E0E1E09FF001DF01E12FF0E0EA0FFB1F96
:10145200AA81BB81EA0FFB1F7E2F8F2F6081D001F3
:10146200EE27A10FBE1FE0E1F0E00E94840BE1CF66
:10147200DF01E12FF0E0EA0FFB1FAA81BB81089593
:10148200E12FF0E0DE0111960895FE013196FA9304
:10149200EA93FE017396FA93EA93A0E10895DE01BE
:1014A20011960E946504DE0111960C9484051A02BD
:1014B200F001AE2F0C94F003EA0FFB1F0F01AAA15B
:1014C200BBA1A0CFBA93AA9360971A9310E0089594
:1014D200EA0FFB1F0F01A989BA8994CFA989BA899A
:1014E2001196EC93EB85A989BA891296EC9308952B
:1014F200A989BA891396EC93ED81A989BA891496C0
:10150200EC930895A989BA891596EC93EF85A98978
:10151200BA891696EC930895A989BA891796EC931D
:10152200E985A989BA891896EC930895A989BA8997
:101532001996EC93EB81A989BA891A96EC930895CE
:10154200A989BA891B96EC93ED85A989BA891C965B
:10155200EC930895A989BA891D96EC93EF81A98924
:10156200BA891E96EC930895FE01EB54FF4F019049
:10157200F081E02DFA93EA93FE013396FA93EA930F
:101582000895DE01AB54BF4F0D90BC91A02D08957C
:101592000E94F605F6DF0C941D06FE01EB54FF4F88
:1015A2000190F081E02DFA93EA930895EA93AD81D8
:1015B2000C945503EA93AB810C945503EA93AC81E6
:1015C2000C945503EA93AA810C945503EA93A985D6
:1015D2000C945503EA93AF810C945503EA93A885C2
:1015E2000C945503EA93AE810C945503EA93AD85AE
:1015F2000C945503EA93AB850C945503EA93AC859E
:101602000C945503EA93AA850C945503EA93A9898D
:101612000C945503EA93AF850C945503EA93A88979
:101622000C945503EA93AE850C9455032A93AD8529
:10163200BE85EF85F88909950895E889F989349777
:10164200E88BF98B0895AD85BE85EF85F8890995FC
:101652000895A889B98914960E94770BEE83FF83B7
:10166200AE81BF810895A889B98914960E94770B2B
:10167200EA87FB870895109639F080ED97E001978D
:10168200F1F7A8951197C9F708950024AF0DB01D81
:101692000895F195E195F0400895EE230E2EEA2F7C
:1016A20019F0E5950A94E9F708950024112490E1D0
:1016B200AA0FBB1F001C111C0E1A1F0A18F40E0ED3
:1016C2001F1E01C0A1609A9599F7FD01D0010895EE
:1016D200E894B7FF04C0A095B09511966894F7FD01
:1016E200D8DFE3DFFD010EF4D4DF0895ED91FC9124
:1016F200119708950590F491E02D08957A936A93D5
:10170200FA93EA9308951B2EBF2FF12D1A2EAE2FB6
:10171200E12D08955A934A933A932A931A930A937E
:1017220008955D814C813B812A8119810881089548
:00000001FF
